:10000000007C00200941000035410000354100001E
:100010003541000035410000354100003541000008
:1000200035410000354100003541000035410000F8
:1000300035410000354100003541000035410000E8
:10004000017C0000354100003541000035410000D1
:1000500035410000354100003541000035410000C8
:100060003541000035410000F5820000E53D00000B
:10007000653E00003541000035410000354100007B
:100080003541000035410000892300003541000062
:100090003541000035410000354100003541000088
:1000A0003541000035410000354100003541000078
:1000B000354100005976000035410000354100000F
:1000C000354100003541000010B5054C237833B9A7
:1000D000044B13B10448AFF300800123237010BD1B
:1000E0009003002000000000E099000008B5034BD9
:1000F0001BB103490348AFF3008008BD00000000B6
:1001000094030020E0990000154B002B08BF134B0F
:100110009D46A3F5803A00218B460F461348144AAA
:10012000121A09F062FA0F4B002B00D098470E4BC1
:10013000002B00D098470020002104000D000D483E
:10014000002802D00C48AFF3008009F00FFA20001D
:10015000290001F0E5FD09F0F5F900BF00000800F5
:10016000007C002000000000000000009003002040
:100170002C090020000000000000000000B585B040
:1001800003900291114B1B7A83F00103DBB2002B29
:1001900013D00021102002F06FFB0C4B01221A72C9
:1001A000039807F00FFA094B5A6800230093084B95
:1001B0000021039807F068F803E00121102002F005
:1001C0005BFB00BF05B05DF804FB00BFF00300203F
:1001D0007D01000000B583B003468DF807300B4663
:1001E0008DF8063013468DF805309DF80730124A19
:1001F000D25C9DF8063013408DF806309DF805302E
:10020000002B07D19DF807300C4AD35C9DF80620DF
:100210009A420DD09DF806209DF8073019460848EF
:1002200002F02BFF9DF8073004499DF80620CA54C0
:1002300000BF03B05DF804FBDC030020D403002002
:100240002C04002000B583B0034600918DF80730E0
:100250009DF8073019468F4802F0A6FF03467F2B12
:100260000CBF01230023DBB2002B40F002819DF87C
:1002700007300F2B0BD89DF80720009B022B01D1D4
:10028000012300E000231946104600F03BF99DF8D9
:100290000730132B34D8009B002B02D0009B0B2B74
:1002A00016D19DF80730DB08D8B202467A4B9B5C2A
:1002B0005AB29DF8073003F00703012101FA03F356
:1002C0005BB213435BB20246D9B2734B995417E049
:1002D0009DF80730DB08D8B202466F4B9B5C5AB2E0
:1002E0009DF8073003F00703012101FA03F35BB225
:1002F000DB435BB213405BB20246D9B2664B995402
:100300009DF8073000221946624802F0A3FF009BC7
:100310000B2B00F2A98001A252F823F07D0300000C
:10032000DF0300004D0300003704000069040000F3
:100330006904000069040000690400006904000009
:100340006904000077040000AB0300009DF807304B
:100350000F2B00F292809DF80730132B06D89DF8E2
:10036000073000220221184602F03AFA9DF80730C1
:1003700002221946474802F025FF7EE09DF807302B
:10038000132B7CD89DF80730072B06D19DF807303A
:1003900000220121184602F023FA9DF807300122BD
:1003A00019463C4802F00EFF69E09DF80730132B18
:1003B00067D89DF8073001220221184602F010FA92
:1003C0009DF807300B221946324802F0FBFE9DF8DB
:1003D0000730012219462F4802F03CFF51E09DF8FA
:1003E0000730132B4FD89DF807301946294802F0E3
:1003F000DBFE0346032B0CBF01230023DBB2002BE3
:100400000AD09DF80730184602F022F89DF8073010
:100410000021184602F030FA9DF80730002204212E
:10042000184602F0DDF99DF80730012219461948F7
:1004300002F0C8FE27E09DF80730132B25D89DF861
:10044000073000220421184602F0CAF99DF807304F
:10045000032219460F4802F0B5FE9DF8073000212F
:10046000184602F023FA10E00C490A4802F019FE7F
:100470000CE000BF0AE000BF08E000BF06E000BFDC
:1004800004E000BF02E000BF00E000BF03B05DF881
:1004900004FB00BF2C040020DC03002000990000B6
:1004A00000B583B0034600918DF807309DF8073002
:1004B000132B20D89DF80730132B1CD89DF807303C
:1004C00019460F4802F070FE0346012B0CBF0123B2
:1004D0000023DBB2002B0ED09DF80730009A19469E
:1004E000074802F0B7FE9DF807301A46009B1946F0
:1004F000104602F0C1F900BF03B05DF804FB00BF75
:100500002C04002000B583B0034600918DF807301D
:100510009DF80730132B2BD8009B002B0BD19DF897
:100520000730012202FA03F3DA43134B1B6813402E
:10053000114A13601CE09DF8073001229A400E4BCF
:100540001B6813430C4A13600C4B1B7883F00103A8
:10055000DBB2002B0CD09DF80730184602F0F8F9FA
:1005600003461A469DF807301946054802F071FD0A
:1005700000BF03B05DF804FBC8030020EC030020BB
:100580002C04002000B585B0034600918DF807309B
:100590009DF80730052B00F23C819DF80730009A4A
:1005A000D1B29E4AD154009B002B00F032819DF8BD
:1005B00007309B4AD25C9DF807308DF80F30134608
:1005C0008DF80E3000238DF80D309DF80F30DB00D4
:1005D0008DF80C309DF80C30132B0FD89DF80E3091
:1005E00003F00103002B09D09DF80C30184602F0EF
:1005F0002BF90346002B01D0012300E00023002B40
:1006000005D09DF80D3043F001038DF80D309DF8B5
:100610000C300133002B15DB9DF80C300133132B0C
:1006200010DC9DF80E3003F00203002B0AD09DF879
:100630000C300133184602F007F90346002B01D0B5
:10064000012300E00023002B05D09DF80D3043F07E
:1006500002038DF80D309DF80C300233002B15DBB2
:100660009DF80C300233132B10DC9DF80E3003F094
:100670000403002B0AD09DF80C300233184602F018
:10068000E3F80346002B01D0012300E00023002BF8
:1006900005D09DF80D3043F004038DF80D309DF822
:1006A0000C300333002B15DB9DF80C300333132B78
:1006B00010DC9DF80E3003F00803002B0AD09DF8E3
:1006C0000C300333184602F0BFF80346002B01D06C
:1006D000012300E00023002B05D09DF80D3043F0EE
:1006E00008038DF80D309DF80C300433002B15DB1A
:1006F0009DF80C300433132B10DC9DF80E3003F002
:100700001003002B0AD09DF80C300433184602F079
:100710009BF80346002B01D0012300E00023002BAF
:1007200005D09DF80D3043F010038DF80D309DF885
:100730000C300533002B15DB9DF80C300533132BE3
:1007400010DC9DF80E3003F02003002B0AD09DF83A
:100750000C300533184602F077F80346002B01D021
:10076000012300E00023002B05D09DF80D3043F05D
:1007700020038DF80D309DF80C300633002B15DB6F
:100780009DF80C300633132B10DC9DF80E3003F06F
:100790004003002B0AD09DF80C300633184602F0B7
:1007A00053F80346002B01D0012300E00023002B67
:1007B00005D09DF80D3043F040038DF80D309DF8C5
:1007C0000C300733002B13DB9DF80C300733132B51
:1007D0000EDC9DF90E30002B0ADA9DF80C30073341
:1007E000184602F031F80346002B01D0012300E047
:1007F0000023002B05D09DF80D3063F07F038DF8AA
:100800000D309DF80D109DF8073001221846FFF7B6
:10081000E1FC00BF05B05DF804FB00BFCC03002085
:10082000DC03002000B583B0034600918DF807304B
:100830009DF80730132B1FD89DF807301946104834
:1008400002F0B2FC0346032B00D015E09DF8073000
:10085000132B10D89DF807301A46009BDBB21946BF
:10086000104602F023F89DF80730009A1946044814
:1008700002F0F0FC00BF00BF00BF03B05DF804FB56
:100880002C04002000B585B0034600918DF8073098
:1008900001238DF80E3000238DF80D309DF80730C0
:1008A000052B00F297809DF807300133DBB2DB00A7
:1008B0008DF80F309DF80F30142B02D914238DF8CA
:1008C0000F309DF80730DB00DBB28DF80B309DF860
:1008D0000B309DF80F209A427CD99DF80B30132BDA
:1008E0006CD89DF80B3019463C4802F05DFC03467D
:1008F000012B08D09DF80B301946384802F054FC03
:100900000346002B01D1012300E00023002B55D02A
:10091000009BDAB29DF80E301340DBB2002B01D001
:10092000012300E000238DF80C309DF80B301946B0
:100930002A4802F039FC0346012B0CBF0123002397
:10094000DBB2002B07D09DF80D209DF80E3013432D
:100950008DF80D3021E09DF80B3019461F4802F04C
:1009600023FC0346002B0ED19DF80C30012B0AD13D
:100970009DF80B301946194802F05EFC0346012B26
:1009800001D0012300E00023002B06D09DF80B309E
:1009900001220221184601F023FF9DF80B309DF83B
:1009A0000C2019460D4802F055FC9DF80B301A46F4
:1009B0009DF80C301946104601F05EFF9DF80E3090
:1009C0005B008DF80E309DF80B300133DBB28DF8F3
:1009D0000B307CE700BF05B05DF804FB2C04002061
:1009E00000B587B0034602928DF80F300B468DF8A4
:1009F0000E309DF80F306B2B56D06B2B09DC602B23
:100A000000F0E281692B00F03E810B2B00F0628147
:100A1000E1E16F2B22D07A2B03D06D2B00F0B88050
:100A2000D9E19DF80E30012B13D9029B1B781A4691
:100A3000029B01331B78DB0113441A46B64B1A6044
:100A4000B54B1B68002B40F0C181B34B01221A60EB
:100A5000BCE1B249B24802F024FBB7E19DF80E3088
:100A6000012B40F2B581029B01331B7805939DF861
:100A70000E30022B06D9029B02331B78DB01059A4C
:100A8000134305939DF80E30032B06D9029B0333C5
:100A90001B789B03059A13430593029B1B780599CA
:100AA0001846FFF7BFFE93E1F0219D4802F007FBD7
:100AB0006C219B4802F003FB00238DF813309DF856
:100AC0001330132B5ED89DF81330964A5B01134404
:100AD00004331B68132B17D80021914802F0EFFA5A
:100AE00001218F4802F0EBFA0B218D4802F0E7FA62
:100AF00001218B4802F0E3FA0121894802F0DFFA74
:100B00000121874802F0DBFA9DF81330854A5B012A
:100B1000134408331B78002B07D00221804802F0D1
:100B2000CEFA0A217E4802F0CAFA9DF813307D4AB7
:100B30005B01134410331B68B3F1113F07D003214D
:100B4000774802F0BCFA0821754802F0B8FA9DF81F
:100B50001330744A5B01134404331B68132B07D80A
:100B600004216F4802F0ABFA0E216D4802F0A7FA9B
:100B70007F216B4802F0A3FA9DF8133001338DF802
:100B800013309CE700BFF721654802F098FA22E194
:100B90009DF80E30002B00F01D81029B1B788DF814
:100BA0001230F0215E4802F08AFA6E215C4802F0B1
:100BB00086FA9DF812301946594802F080FA9DF8DD
:100BC0001230132B5AD89DF812301946544802F0AF
:100BD000EBFA03461946524802F071FA9DF81230BA
:100BE00019464F4802F028FB0346DBB203F07F03AF
:100BF000DBB219464A4802F062FA9DF812301946F3
:100C0000474802F019FB02464FF680731340002B51
:100C100014BF01230023DBB2002B0FD09DF812304C
:100C200019463F4802F008FB0346DB11DBB203F034
:100C30007F03DBB219463A4802F041FA9DF81230C0
:100C40001946374802F0F8FA034603F44043002BF4
:100C500014BF01230023DBB2002B0FD09DF812300C
:100C600019462F4802F0E8FA03469B13DBB203F063
:100C70007F03DBB219462A4802F021FAF7212848FF
:100C800002F01DFAA6E0F021254802F018FA6A21C8
:100C9000234802F014FA00238DF811309DF811302A
:100CA000132B12D89DF811300F2B02D89DF811305C
:100CB00000E07F2319461A4802F001FA9DF811302E
:100CC0000133DBB28DF81130E8E7F721144802F068
:100CD000F6F980E0F021124802F0F1F90B211048FA
:100CE00002F0EDF9029B1B7819460D4802F0E7F976
:100CF000029B1B78002B02D0012B15D05FE0002156
:100D0000074802F0DCF90021054802F0D8F9022179
:100D1000034802F0D4F952E00000002014990000CA
:100D20002C040020680000209DF80E30052B45D9CA
:100D3000029B01331B781A464FF47A7303FB02F3CC
:100D4000274A1360029B04331B789A03029B0333E8
:100D50001B78DB011343029A0232127813431A46BE
:100D60004FF47A7303FB02F31D4A5360029B013375
:100D70001B78002B11D10021102001F07DFD184BB4
:100D800001221A72174B1868154B5A6800230093FA
:100D9000154B002106F078FA10E00121102001F037
:100DA0006BFD0F4B00221A720E4B18680C4B1A6821
:100DB000002300930C4B002106F066FA00BFF721D8
:100DC0000A4802F07CF906E000BF04E000BF02E040
:100DD00000BF00E000BF00BF07B05DF804FB00BF2C
:100DE000F0030020040400207D0100002C040020FA
:100DF00000B583B0264B01221A7000238DF807300E
:100E00009DF80730052B14D89DF80730214A0021A2
:100E1000D1549DF80730204A0021D1549DF8073065
:100E20001E4A0021D1549DF8073001338DF8073058
:100E3000E6E700238DF806309DF80630132B1BD80B
:100E40009DF806300F2B06D89DF806300221184673
:100E5000FFF7F8F909E09DF80630132B05D89DF847
:100E6000063001211846FFF7EDF99DF806300133F1
:100E7000DBB28DF80630DFE7094B00221A60044B25
:100E800000221A7001F093F900BF03B05DF804FB73
:100E9000EC030020CC030020DC030020D40300205E
:100EA000C803002000B587B0D04B1B78002B00F0A2
:100EB0002D81CF4B1B7800228DF817208DF816302E
:100EC00000238DF815309DF81730DB008DF81430B5
:100ED0009DF81430132B0FD89DF8163003F0010342
:100EE000002B09D09DF81430184601F0ADFC0346E4
:100EF000002B01D0012300E00023002B05D09DF83A
:100F0000153043F001038DF815309DF8143001338E
:100F1000002B15DB9DF814300133132B10DC9DF8EA
:100F2000163003F00203002B0AD09DF81430013371
:100F3000184601F089FC0346002B01D0012300E094
:100F40000023002B05D09DF8153043F002038DF8E7
:100F500015309DF814300233002B15DB9DF814304A
:100F60000233132B10DC9DF8163003F00403002B22
:100F70000AD09DF814300233184601F065FC034690
:100F8000002B01D0012300E00023002B05D09DF8A9
:100F9000153043F004038DF815309DF814300333F9
:100FA000002B15DB9DF814300333132B10DC9DF858
:100FB000163003F00803002B0AD09DF814300333D9
:100FC000184601F041FC0346002B01D0012300E04C
:100FD0000023002B05D09DF8153043F008038DF851
:100FE00015309DF814300433002B15DB9DF81430B8
:100FF0000433132B10DC9DF8163003F01003002B84
:101000000AD09DF814300433184601F01DFC034645
:10101000002B01D0012300E00023002B05D09DF818
:10102000153043F010038DF815309DF8143005335A
:10103000002B15DB9DF814300533132B10DC9DF8C5
:10104000163003F02003002B0AD09DF8143005332E
:10105000184601F0F9FB0346002B01D0012300E004
:101060000023002B05D09DF8153043F020038DF8A8
:1010700015309DF814300633002B15DB9DF8143025
:101080000633132B10DC9DF8163003F04003002BC1
:101090000AD09DF814300633184601F0D5FB0346FC
:1010A000002B01D0012300E00023002B05D09DF888
:1010B000153043F040038DF815309DF81430073398
:1010C000002B13DB9DF814300733132B0EDC9DF936
:1010D0001630002B0ADA9DF814300733184601F059
:1010E000B3FB0346002B01D0012300E00023002BBB
:1010F00005D09DF8153063F07F038DF815309DF80D
:101100001530002219460020FFF764F8374B5B7852
:10111000002B00F03181364B5B7801228DF81320D3
:101120008DF8123000238DF811309DF81330DB005C
:101130008DF810309DF81030132B0FD89DF8123019
:1011400003F00103002B09D09DF81030184601F080
:101150007BFB0346002B01D0012300E00023002B82
:1011600005D09DF8113043F001038DF811309DF842
:1011700010300133002B15DB9DF810300133132B99
:1011800010DC9DF8123003F00203002B0AD09DF80A
:1011900010300133184601F057FB0346002B01D0F5
:1011A000012300E00023002B05D09DF8113043F00F
:1011B00002038DF811309DF810300233002B19DB3B
:1011C0009DF810300233132B14DC9DF8123003F01D
:1011D0000403002B0ED09DF810300233184601F0A6
:1011E00033FB0346002B05D0012304E0CC03002091
:1011F000DC0300200023002B05D09DF8113043F0C4
:1012000004038DF811309DF810300333002B15DBEB
:101210009DF810300333132B10DC9DF8123003F0CF
:101220000803002B0AD09DF810300333184601F054
:101230000BFB0346002B01D0012300E00023002B11
:1012400005D09DF8113043F008038DF811309DF85A
:1012500010300433002B15DB9DF810300433132BB2
:1012600010DC9DF8123003F01003002B0AD09DF81B
:1012700010300433184601F0E7FA0346002B01D082
:10128000012300E00023002B05D09DF8113043F02E
:1012900010038DF811309DF810300533002B15DB4D
:1012A0009DF810300533132B10DC9DF8123003F03D
:1012B0002003002B0AD09DF810300533184601F0AA
:1012C000C3FA0346002B01D0012300E00023002BCA
:1012D00005D09DF8113043F020038DF811309DF8B2
:1012E00010300633002B15DB9DF810300633132B1E
:1012F00010DC9DF8123003F04003002B0AD09DF85B
:1013000010300633184601F09FFA0346002B01D037
:10131000012300E00023002B05D09DF8113043F09D
:1013200040038DF811309DF810300733002B13DB8C
:101330009DF810300733132B0EDC9DF91230002B73
:101340000ADA9DF810300733184601F07DFA03469B
:10135000002B01D0012300E00023002B05D09DF8D5
:10136000113063F07F038DF811309DF811300022A9
:1013700019460120FEF72EFFD04B9B78002B00F082
:101380002D81CF4B9B7802228DF80F208DF80E30E7
:1013900000238DF80D309DF80F30DB008DF80C30F8
:1013A0009DF80C30132B0FD89DF80E3003F001037D
:1013B000002B09D09DF80C30184601F045FA034681
:1013C000002B01D0012300E00023002B05D09DF865
:1013D0000D3043F001038DF80D309DF80C300133D2
:1013E000002B15DB9DF80C300133132B10DC9DF81E
:1013F0000E3003F00203002B0AD09DF80C300133AD
:10140000184601F021FA0346002B01D0012300E029
:101410000023002B05D09DF80D3043F002038DF81A
:101420000D309DF80C300233002B15DB9DF80C308D
:101430000233132B10DC9DF80E3003F00403002B55
:101440000AD09DF80C300233184601F0FDF903462E
:10145000002B01D0012300E00023002B05D09DF8D4
:101460000D3043F004038DF80D309DF80C3003333C
:10147000002B15DB9DF80C300333132B10DC9DF88B
:101480000E3003F00803002B0AD09DF80C30033314
:10149000184601F0D9F90346002B01D0012300E0E2
:1014A0000023002B05D09DF80D3043F008038DF884
:1014B0000D309DF80C300433002B15DB9DF80C30FB
:1014C0000433132B10DC9DF80E3003F01003002BB7
:1014D0000AD09DF80C300433184601F0B5F90346E4
:1014E000002B01D0012300E00023002B05D09DF844
:1014F0000D3043F010038DF80D309DF80C3005339E
:10150000002B15DB9DF80C300533132B10DC9DF8F8
:101510000E3003F02003002B0AD09DF80C30053369
:10152000184601F091F90346002B01D0012300E099
:101530000023002B05D09DF80D3043F020038DF8DB
:101540000D309DF80C300633002B15DB9DF80C3068
:101550000633132B10DC9DF80E3003F04003002BF4
:101560000AD09DF80C300633184601F06DF9034699
:10157000002B01D0012300E00023002B05D09DF8B3
:101580000D3043F040038DF80D309DF80C300733DB
:10159000002B13DB9DF80C300733132B0EDC9DF969
:1015A0000E30002B0ADA9DF80C300733184601F094
:1015B0004BF90346002B01D0012300E00023002B50
:1015C00005D09DF80D3063F07F038DF80D309DF848
:1015D0000D30002219460220FEF7FCFD374BDB7868
:1015E000002B00F03181364BDB7803228DF80B2085
:1015F0008DF80A3000238DF809309DF80B30DB00A0
:101600008DF808309DF80830132B0FD89DF80A305C
:1016100003F00103002B09D09DF80830184601F0B3
:1016200013F90346002B01D0012300E00023002B17
:1016300005D09DF8093043F001038DF809309DF87D
:1016400008300133002B15DB9DF808300133132BD4
:1016500010DC9DF80A3003F00203002B0AD09DF83D
:1016600008300133184601F0EFF80346002B01D093
:10167000012300E00023002B05D09DF8093043F042
:1016800002038DF809309DF808300233002B19DB76
:101690009DF808300233132B14DC9DF80A3003F058
:1016A0000403002B0ED09DF808300233184601F0D9
:1016B000CBF80346002B05D0012304E0CC03002027
:1016C000DC0300200023002B05D09DF8093043F0F7
:1016D00004038DF809309DF808300333002B15DB27
:1016E0009DF808300333132B10DC9DF80A3003F00B
:1016F0000803002B0AD09DF808300333184601F088
:10170000A3F80346002B01D0012300E00023002BA7
:1017100005D09DF8093043F008038DF809309DF895
:1017200008300433002B15DB9DF808300433132BED
:1017300010DC9DF80A3003F01003002B0AD09DF84E
:1017400008300433184601F07FF80346002B01D01F
:10175000012300E00023002B05D09DF8093043F061
:1017600010038DF809309DF808300533002B15DB88
:101770009DF808300533132B10DC9DF80A3003F078
:101780002003002B0AD09DF808300533184601F0DD
:101790005BF80346002B01D0012300E00023002B5F
:1017A00005D09DF8093043F020038DF809309DF8ED
:1017B00008300633002B15DB9DF808300633132B59
:1017C00010DC9DF80A3003F04003002B0AD09DF88E
:1017D00008300633184601F037F80346002B01D0D5
:1017E000012300E00023002B05D09DF8093043F0D1
:1017F00040038DF809309DF808300733002B13DBC8
:101800009DF808300733132B0EDC9DF90A30002BAE
:101810000ADA9DF808300733184601F015F8034638
:10182000002B01D0012300E00023002B05D09DF800
:10183000093063F07F038DF809309DF809300022EC
:1018400019460320FEF7C6FCD04B1B79002B00F095
:101850002D81CF4B1B7904228DF807208DF806309F
:1018600000238DF805309DF80730DB008DF804303B
:101870009DF80430132B0FD89DF8063003F00103B8
:10188000002B09D09DF80430184600F0DDFF034618
:10189000002B01D0012300E00023002B05D09DF890
:1018A000053043F001038DF805309DF80430013315
:1018B000002B15DB9DF804300133132B10DC9DF851
:1018C000063003F00203002B0AD09DF804300133E8
:1018D000184600F0B9FF0346002B01D0012300E0B9
:1018E0000023002B05D09DF8053043F002038DF84E
:1018F00005309DF804300233002B15DB9DF80430D1
:101900000233132B10DC9DF8063003F00403002B88
:101910000AD09DF804300233184600F095FF0346C4
:10192000002B01D0012300E00023002B05D09DF8FF
:10193000053043F004038DF805309DF8043003337F
:10194000002B15DB9DF804300333132B10DC9DF8BE
:10195000063003F00803002B0AD09DF8043003334F
:10196000184600F071FF0346002B01D0012300E070
:101970000023002B05D09DF8053043F008038DF8B7
:1019800005309DF804300433002B15DB9DF804303E
:101990000433132B10DC9DF8063003F01003002BEA
:1019A0000AD09DF804300433184600F04DFF03467A
:1019B000002B01D0012300E00023002B05D09DF86F
:1019C000053043F010038DF805309DF804300533E1
:1019D000002B15DB9DF804300533132B10DC9DF82C
:1019E000063003F02003002B0AD09DF804300533A5
:1019F000184600F029FF0346002B01D0012300E028
:101A00000023002B05D09DF8053043F020038DF80E
:101A100005309DF804300633002B15DB9DF80430AB
:101A20000633132B10DC9DF8063003F04003002B27
:101A30000AD09DF804300633184600F005FF03462F
:101A4000002B01D0012300E00023002B05D09DF8DE
:101A5000053043F040038DF805309DF8043007331E
:101A6000002B13DB9DF804300733132B0EDC9DF99C
:101A70000630002B0ADA9DF804300733184600F0D0
:101A8000E3FE0346002B01D0012300E00023002BDE
:101A900005D09DF8053063F07F038DF805309DF883
:101AA0000530002219460420FEF794FB374B5B7982
:101AB000002B00F03181364B5B7905228DF8032035
:101AC0008DF8023000238DF801309DF80330DB00E3
:101AD0008DF800309DF80030132B0FD89DF80230A0
:101AE00003F00103002B09D09DF80030184600F0E8
:101AF000ABFE0346002B01D0012300E00023002BA6
:101B000005D09DF8013043F001038DF801309DF8B8
:101B100000300133002B15DB9DF800300133132B0F
:101B200010DC9DF8023003F00203002B0AD09DF870
:101B300000300133184600F087FE0346002B01D029
:101B4000012300E00023002B05D09DF8013043F075
:101B500002038DF801309DF800300233002B19DBB1
:101B60009DF800300233132B14DC9DF8023003F093
:101B70000403002B0ED09DF800300233184600F00D
:101B800063FE0346002B05D0012304E0CC030020B4
:101B9000DC0300200023002B05D09DF8013043F02A
:101BA00004038DF801309DF800300333002B15DB62
:101BB0009DF800300333132B10DC9DF8023003F046
:101BC0000803002B0AD09DF800300333184600F0BC
:101BD0003BFE0346002B01D0012300E00023002B35
:101BE00005D09DF8013043F008038DF801309DF8D1
:101BF00000300433002B15DB9DF800300433132B29
:101C000010DC9DF8023003F01003002B0AD09DF881
:101C100000300433184600F017FE0346002B01D0B5
:101C2000012300E00023002B05D09DF8013043F094
:101C300010038DF801309DF800300533002B15DBC3
:101C40009DF800300533132B10DC9DF8023003F0B3
:101C50002003002B0AD09DF800300533184600F011
:101C6000F3FD0346002B01D0012300E00023002BED
:101C700005D09DF8013043F020038DF801309DF828
:101C800000300633002B15DB9DF800300633132B94
:101C900010DC9DF8023003F04003002B0AD09DF8C1
:101CA00000300633184600F0CFFD0346002B01D06C
:101CB000012300E00023002B05D09DF8013043F004
:101CC00040038DF801309DF800300733002B13DB03
:101CD0009DF800300733132B0EDC9DF90230002BEA
:101CE0000ADA9DF800300733184600F0ADFD0346D0
:101CF000002B01D0012300E00023002B05D09DF82C
:101D0000013063F07F038DF801309DF8013000222F
:101D100019460520FEF75EFA00BF07B05DF804FB28
:101D200000B583B0052302224B494C4801F0F0F87E
:101D30004B4AE021494801F0D5F94A4A90214748E9
:101D400001F0D0F9484AC021444801F0CBF9474A94
:101D5000D021424801F0C6F9454AF4213F4801F03C
:101D6000C1F9444AF5213D4801F0BCF9424AF0214D
:101D70003A4801F00BFA414AFF21384801F0F2F9E4
:101D800000F006FA4FF461413D4802F001F93C4988
:101D9000324801F073F8FFF785F8304801F030F968
:101DA0000346002BCCBF01230023DBB2002B03D062
:101DB0002A4801F033F9F0E700F002FE0246314B09
:101DC0001A60304B1A68304B1B68D21A2F4B1B68B5
:101DD0009A42E0D92C4B1A682C4B1B6813442A4AB0
:101DE000136000238DF806309DF80630132BD2D8EF
:101DF0009DF806300F2B0AD89DF806301946174873
:101E000001F0D2F90346022B01D1012300E00023A7
:101E1000002B1AD09DF806308DF807301C4B1A683D
:101E20009DF8073042FA03F303F00103002B0CD0B6
:101E30009DF80730184600F08BFD03461A469DF8C2
:101E400007301946054801F004F99DF806300133C2
:101E5000DBB28DF80630C7E7249900002C0400207F
:101E60002508000085080000050500008505000024
:101E700045020000A1040000E1090000F10D00008E
:101E8000AC030020E4030020E80300200000002051
:101E9000C803002000B583B001900091019B012B85
:101EA00007D1009B4FF6FF72934202D1034802F024
:101EB0001DF800BF03B05DF804FB00BFAC030020B9
:101EC00008B54FF6FF710120FFF7E4FF08BD0000E1
:101ED00082B003468DF807309DF9073003F01F02EA
:101EE00005499DF907305B09012000FA02F241F82B
:101EF000232000BF02B0704700E100E082B003463B
:101F00008DF807309DF9073003F01F0206499DF94F
:101F100007305B09012000FA02F2603341F8232008
:101F200000BF02B0704700BF00E100E0BFF34F8F79
:101F3000054BDB6803F4E0620349044B1343CB60B9
:101F4000BFF34F8F00BFFDE700ED00E00400FA058E
:101F500086B0039002910192039B03F10473DA00AF
:101F6000029B13449B000593059B019A1A6000BFD6
:101F700006B0704784B001900091019B03F1047397
:101F8000DA00009B13449B000393039B1B681846D5
:101F900004B0704700B583B0034600918DF8073058
:101FA0009DF807301A4613465B0013441B011C338F
:101FB00003F1804303F52043009A11461846FFF7CA
:101FC000D9FF0346184603B05DF804FB024BDB6CF7
:101FD0001B0EDBB218467047B081E00F00B587B02A
:101FE0002A4B01225A644FF05013049300230393A9
:101FF000FFF7ECFF03468DF80B306B46184604F0F4
:102000003FFD9DF80B308E2B20D8214BD3F8B030FC
:1020100001931F4A019B43F00403C2F8B030002330
:102020000593059B052B0DD81A49059A13465B00AD
:1020300013441B010B444FF050121A60059B0133EF
:102040000593EEE7124A019BC2F8B0309DF80B30C1
:102050008F2B07D80E4BDB6A23F07F030C4A43F02B
:102060002003D3629DF80130012B05D10A4B1B6878
:10207000094A43F00403136000220D210748FFF7CB
:1020800067FF00BF07B05DF804FB00BF00000E4013
:1020900000400E4000A0004064310E4054300E401D
:1020A00082B00190019B9B6C184602B0704782B0D1
:1020B00001900B468DF803309DF80320019B9A6038
:1020C00000BF02B0704782B001904FF6FF73184610
:1020D00002B0704700B585B0039002910192039859
:1020E000FFF7F1FF039A029B1B0113446C33019A23
:1020F0001A6000BF05B05DF804FB00B585B0039021
:10210000029101920398FFF7DEFF039A029B0633C8
:102110001B0113440433019A1A6000BF05B05DF837
:1021200004FB82B001900091019B009A5A6100BFAC
:1021300002B0704782B001900091019B9A69009BA8
:10214000DB431A40019B9A6100BF02B0704782B026
:1021500001900091019B9A69009B1A43019B9A612F
:1021600000BF02B0704782B00190019BDB69184646
:1021700002B0704700B583B0019000910198FFF75D
:10218000A2FF019B009ADA6100BF03B05DF804FB77
:1021900008B500F011F800F041FB00F005FC00F07C
:1021A000A9F800F035F900F013FC00BF08BD08B530
:1021B000FFF7BCFE00BF08BD10B588B0FFF70EFFEB
:1021C000184B04AC0FCB84E80F0004AB184603F0A7
:1021D00051FE00F02BF8144A01AB07CA03C31A7072
:1021E00001238DF8043000238DF8053000238DF88D
:1021F000063000238DF8073000238DF809300023C6
:102200008DF8083000238DF80A3000238DF80B304C
:1022100001AB184604F0EEFB05F030FF00BF08B03C
:1022200010BD00BF809900009099000030B587B0C4
:10223000274B01AC1D460FCD0FC42B682380254BC7
:102240005B6803F40023002B0CBF01230023DBB2E7
:10225000002B06D0204B1B88C3F308039BB2ADF8BC
:102260000A3001AB184603F06BF81C4801F0C0FFC0
:1022700001220121022003F005F9012201210020A1
:1022800003F00EF800220021032003F0FBF80121E7
:10229000134802F0AFFC134B1B68009320238DF80A
:1022A00000306B46184603F0C5F84FF4004001F0CB
:1022B000E5FF02210C4802F0B3FE02210B4802F0B8
:1022C000AFFE02210A4802F0ABFE00BF07B030BDEE
:1022D0009C990000B081E00FB881E00F00F0490246
:1022E00000050A00B099000002001C0003001E0057
:1022F0000500220008B501210C4802F07BFC0021FA
:102300000B4802F007FA03461A460A4BDA700A4BEA
:1023100000229A71084B01229A70074B0022DA7052
:10232000054B03225A7000BF08BD00BF00820400A5
:10233000405DC600040000200C00002000B583B002
:10234000019000910D4A019B5B01134408331A78F8
:102350000B4B1A71094A019B5B0113440C33022297
:102360001A800849009802F0C5F80549009802F063
:102370002BF900BF03B05DF804FB00BF680000202C
:102380000C0000200400002010B582B000238DF85E
:1023900007309DF80730032B0ED89DF80730102228
:1023A00002FA03F319461748FFF7BBFE9DF8073002
:1023B00001338DF80730ECE700238DF806309DF8E7
:1023C0000630032B1BD89DF806400E48FFF7CBFEC6
:1023D00001469DF806300C4A52F8233003FB01F306
:1023E0000A4AA2FB03235B091A4621460548FFF768
:1023F00071FE9DF8063001338DF80630DFE700BF2F
:1024000002B010BD00840140180400201F85EB516C
:1024100008B501210B4802F0EDFB0B4B03229A712A
:10242000094A0021094804F0F6FB074A0121074840
:1024300004F0F1FB044A0221044804F0ECFB00BF65
:1024400008BD00BF00120400080400200084014001
:1024500000B585B003468DF807304FF0FF33039386
:1024600000238DF80B309DF80B30032B11D89DF80D
:102470000B302D4A52F833209DF807309A4202D192
:102480009DF80B3003939DF80B3001338DF80B3022
:10249000E9E7039BB3F1FF3F41D0234A039BDB00F5
:1024A00013444FF011325A601F4A039B4FF0113111
:1024B00042F833101D4B00225A6300238DF80A3076
:1024C0009DF80A30032B19D89DF80A30164ADB0014
:1024D00013445B68B3F1113F0AD0144B5A6B9DF85B
:1024E0000A301149DB000B445B68104913434B630E
:1024F0009DF80A3001338DF80A30E1E71022039B82
:1025000002FA03F319460948FFF70BFE1022039B5A
:1025100002FA03F319460548FFF70CFE00E000BF7E
:1025200005B05DF804FB00BF3800002000840140C6
:1025300082B001900B468DF803309DF80330032BD9
:102540003ED801A252F823F059250000732500005F
:102550008D250000A72500009DF803302349019A2E
:1025600052010A44103212682149DB000B445A60C0
:1025700033E09DF803301D49019A52010A44143298
:1025800012681B49DB000B445A6026E09DF80330BB
:102590001649019A52010A44183212681449DB00A4
:1025A0000B445A6019E09DF803301049019A52011A
:1025B0000A441C3212680E49DB000B445A600CE0DE
:1025C0009DF803300949019A52010A4410321268F9
:1025D0000749DB000B445A6000BF9DF803300449F3
:1025E000019A41F8332000BF02B070476800002014
:1025F0003800002000B585B001900B468DF80330FF
:10260000594B00225A63594B1B780393584A019B3C
:102610005B01134410331B68B3F1113F44D0002316
:102620008DF80B309DF80B30032B10D89DF80B3034
:10263000504A52F83330019A9A4202D19DF80B3039
:1026400003939DF80B3001338DF80B30EAE79DF8CA
:1026500003204949039B41F82320039BDBB2194621
:102660000198FFF765FF00238DF80A309DF80A30C6
:10267000032B1BD89DF80A303E4ADB0013445B68ED
:10268000B3F1113F0AD0384B5A6B9DF80A303949E3
:10269000DB000B445B68344913434B639DF80A30FD
:1026A00001338DF80A30E1E7002359E02E4B1A6B15
:1026B0000121039B01FA03F32B4913430B632F48BA
:1026C00002F000FB02462E4BA3FB02239B09194696
:1026D0002548FFF74FFD2448FFF745FD0146264AF0
:1026E000039B52F8233003FB01F3264AA2FB03238A
:1026F0005B091A4603991C48FFF7FFFC224B002296
:102700009A702149184804F013FA1022039B02FA28
:1027100003F319461448FFF704FD1220FFF7EEFB00
:10272000124B1B781A461023934019460E48FFF7A8
:102730000EFD1220FFF7CCFB0C4B1B781A46039BB7
:1027400093420CD1094B1B7801335A4203F0030327
:1027500002F0030258BF5342DAB2044B1A7001234D
:10276000184605B05DF804FB008401401404002005
:102770006800002038000020180400200012040027
:10278000D34D62101F85EB512800002000B583B0A7
:1027900001900B468DF803300E4A019B5B011344F8
:1027A0000A331A880C4B5A8001210C4804F04EF869
:1027B0009DF803301946094804F0CEF80649074849
:1027C00004F01AF80121054804F0D9F800BF03B05D
:1027D0005DF804FB68000020180000200060004045
:1027E00000B585B003900B4601928DF80B300A4A74
:1027F000039B5B0113441878074A039B5B01134456
:10280000043319689DF80B20019B03F031FE00BFD3
:1028100005B05DF804FB00BF6800002010B584B06F
:102820000121074802F0E6F9064B6C460FCB84E81D
:102830000F006B46184603F01DFB00BF04B010BD2F
:1028400000250A008099000000B583B00190094A74
:10285000019B5B0113441878064A019B5B011344FA
:1028600004331B681946FFF795FB0346184603B06F
:102870005DF804FB6800002000B583B00190009172
:10288000094A019B5B0113441878074A019B5B01CD
:10289000134404331968009B042203F0E9FD00BFD0
:1028A00003B05DF804FB00BF6800002000B585B0F0
:1028B00003900B468DF80B309DF80B0064230093BA
:1028C0000023FF22002100F0C7F803468DF80B30EB
:1028D0001D4A039B5B0113440A331A881B4B1B6878
:1028E0001B889A421DD0184A039B5B0113440C338A
:1028F0001B88032B06D19DF80B3019460398FFF770
:1029000079FE1CE0104A039B5B0113440C331B88C7
:102910000C2B14D19DF80B3019460398FFF736FFA6
:102920000DE0094A039B5B0113440C331B88032B06
:1029300005D19DF80B3019460398FFF75BFE00BFE9
:1029400005B05DF804FB00BF680000200004002013
:1029500000B583B00190124A019B5B0113440C3314
:102960001B88022B03D00F490198FFF7E7FC0121D8
:102970000C48FFF79CFB0B4BDB6803F48033002B08
:102980000CBF01230023DBB2002B00D0F3E7054886
:10299000FFF786FB0346184603B05DF804FB00BF53
:1029A000680000200020004008B505F00BFC04F092
:1029B00001FC024804F0ACFB00BF08BD0404002089
:1029C00008B504F043FE03469B08184608BD000006
:1029D00008B50121194802F00DF9194B194A9A60FE
:1029E00001230B220A21022003F042FD01230B22C6
:1029F0000B21022003F03CFD134B03225A64124BBF
:102A00009B6C23F01F03104A43F00F0393640E4B9B
:102A10009B6C23F4F8530C4A43F4706393640849A5
:102A2000094803F0ADFE094B00221A70084B002242
:102A30001A70084B00221A7000BF08BD0072040013
:102A400058000020DDFB050000C0004028040020E5
:102A5000290400202A04002084B0039002910192EE
:102A60000093039A029BD31A0499009A8A1A02FBD4
:102A700003F20199029BCB1A92FBF3F2009B1344E1
:102A8000184604B07047000082B001900091019B8D
:102A9000012B52D1009B4FF6FF7293424DD1284B30
:102AA0001B681A88274BA3F86A20254B1B681A88D5
:102AB000244BA3F8AA20224B1B681A88214BA3F8A9
:102AC000EA201F4B1B681A881E4BA3F88A211C4B57
:102AD0001B681A881B4BA3F8CA211B4B1B681A786A
:102AE000184B83F80822164B1B681A88154BA3F85D
:102AF0000A22154B1B681A78124B83F82822104BB8
:102B00001B681A880F4BA3F82A220F4B1B681A78F0
:102B10000C4B83F848220A4B1B681A88094BA3F810
:102B20004A22094B1B681A78064B83F86822044B2B
:102B30001B681A88034BA3F86A2200BF02B07047D3
:102B40000004002068000020FC03002008B54FF6B8
:102B5000FF710120FFF798FF08BD000000B583B0AA
:102B600001900B468DF803301346ADF80030084B4A
:102B70001B68002B07D0064B1B68BDF800109DF8A2
:102B800003201046984700BF03B05DF804FB00BF68
:102B90006005002000B583B001900B468DF803302E
:102BA0001346ADF80030084B1B68002B07D0064BCE
:102BB0001B68BDF800109DF803201046984700BF21
:102BC00003B05DF804FB00BF6405002000B583B0CE
:102BD00001900B468DF803301346ADF80030084BDA
:102BE0001B68002B07D0064B1B68BDF800109DF832
:102BF00003201046984700BF03B05DF804FB00BFF8
:102C00006805002000B583B001900B468DF80330B5
:102C10001346ADF80030084B1B68002B07D0064B5D
:102C20001B68BDF800109DF803201046984700BFB0
:102C300003B05DF804FB00BF6C05002000B583B055
:102C400001900B468DF803301346ADF80030084B69
:102C50001B68002B07D0064B1B68BDF800109DF8C1
:102C600003201046984700BF03B05DF804FB00BF87
:102C70007005002000B583B001900B468DF803303D
:102C80001346ADF80030084B1B68002B07D0064BED
:102C90001B68BDF800109DF803201046984700BF40
:102CA00003B05DF804FB00BF7405002000B583B0DD
:102CB00001900091054B1B68002B03D0034B1B6850
:102CC0000098984700BF03B05DF804FB780500202A
:102CD00000B585B00390019200930B468DF80B3040
:102CE000074B1B68002B07D0054B1B68019AD1B21C
:102CF0009DF80B00009A984700BF05B05DF804FBF3
:102D00007C05002000B585B00390029101920093EC
:102D1000039B002B02D0039800F0D6F800BF05B04B
:102D20005DF804FB00B583B00190019B002B02D03D
:102D3000019800F0BBF800BF03B05DF804FB000091
:102D400000B583B00190054B1B68002B02D0034BEC
:102D50001B68984700BF03B05DF804FB80050020A6
:102D600000B583B00190019B4033184600F05BFB37
:102D7000019B443301994022184600F077FC019BE7
:102D8000002283F8C420019B0022C3F8C820019BC5
:102D9000002283F83021019B03F1440000232C4AD8
:102DA000E02100F00CFE019B03F144000023294ABE
:102DB000902100F004FE019B03F144000023264A09
:102DC000C02100F0FCFD019B03F144000023234AD5
:102DD000D02100F0F4FD019B03F144000023204AC0
:102DE000F42100F0ECFD019B03F1440000231D4A97
:102DF000F52100F0E4FD019B03F1440000231A4A91
:102E0000712100F057FE019B03F144000023174A93
:102E1000F02100F065FE019B03F14400019B144A80
:102E2000792100F012FE019B03F14400019B114A3D
:102E3000F92100F020FE019B03F1440000230E4A1B
:102E4000FF2100F018FE019B184603B05DF804FB5B
:102E50005D2B0000952B00003D2C0000752C000020
:102E6000CD2B0000052C0000AD2C0000D12C000063
:102E7000052D0000252D0000412D000000B583B078
:102E800001900091019B009AC3F8C020019B403340
:102E90000099184600F0D0FA019800F007F8019860
:102EA00000F012F800BF03B05DF804FB00B583B07A
:102EB0000190019B403305220221184600F066FB79
:102EC00000BF03B05DF804FB10B584B00390039B12
:102ED00093F8C430002B18D0039B03F14000039BF0
:102EE000D3F8C8301978039BD3F8C83001331A7867
:102EF000039B93F8C430023B1C46039BD3F8C830B5
:102F000002330093234600F0FAFA00BF04B010BD6C
:102F100000B587B00390029111461A460B468DF812
:102F2000073013468DF806303449029806F093FCBA
:102F300004902F21029806F07AFC0590059B002B47
:102F400004D15C21029806F072FC0590059B002BD1
:102F500002D1029B059302E0059B01330593049B7C
:102F6000002B0AD1059806F045FC0346DBB202337C
:102F7000DAB2039B83F8C42008E0049A059BD31AB5
:102F8000DBB20233DAB2039B83F8C420039BD3F88D
:102F9000C830184606F016FB039B93F8C430013383
:102FA000184606F007FB0246039BC3F8C820039BA4
:102FB000D3F8C830039A92F8C420134400221A7040
:102FC000039BD3F8C8309DF807201A70039BD3F8F1
:102FD000C83001339DF806201A70039BD3F8C8301F
:102FE000981C039B93F8C430023B1A46059906F0DF
:102FF00009FC00BF07B05DF804FB00BFB4990000F6
:1030000000B583B00190019BD3F8C030184601F0A1
:1030100063F80346184603B05DF804FB00B585B0BD
:103020000190019BD3F8C030184601F029F80346FF
:103030000393039BB3F1FF3F07D0019B4433039AF3
:10304000D2B21146184600F07EFB00BF05B05DF815
:1030500004FB00B585B003900B4601928DF80B3050
:10306000039B4033019A92B29DF80B10184600F072
:10307000ECF900BF05B05DF804FB00B585B0039026
:103080000B4601928DF80B30039B4033019A92B2AC
:103090009DF80B10184600F00CFA00BF05B05DF863
:1030A00004FB00B583B001900091019B403300996F
:1030B000184600F0CAFA00BF03B05DF804FB00B583
:1030C00083B001900B468DF80330019BD3F8C030DC
:1030D0009DF803201146184600F090FF00BF03B092
:1030E0005DF804FB84B003900B4601928DF80B3021
:1030F0009DF80B30D02B19D0D02B04DC902B0DD0A9
:10310000C02B0FD01EE0F42B14D0F52B16D0E02BE3
:1031100000D017E00D4A019B136013E00C4A019B9D
:1031200013600FE00B4A019B13600BE00A4A019BFE
:10313000136007E0094A019B136003E0084A019B02
:10314000136000BF00BF04B0704700BF60050020DF
:10315000640500207005002074050020680500202B
:103160006C05002084B003900B4601928DF80B3063
:103170009DF80B30FF2B00D003E0034A019B136046
:1031800000BF00BF04B070478005002084B00390EA
:103190000B4601928DF80B30024A019B136000BF71
:1031A00004B070477C05002082B001900B468DF87A
:1031B00003309DF80330019A134493F8CC3018463D
:1031C00002B0704700B583B001900B468DF8033014
:1031D00013468DF802309DF80330019A134493F89A
:1031E000CC307F2B21D09DF80330124A5B01134471
:1031F0000C331B88032B04D09DF803301846FFF7CF
:1032000027F99DF80330019A13449DF8022083F8B2
:10321000CC209DF803309DF8022091B2054A5B0155
:1032200013440C330A461A8000E000BF03B05DF877
:1032300004FB00BF6800002082B001900B468DF8AF
:1032400003309DF80320019B383253F82230184692
:1032500002B0704784B003900B4601928DF80B309A
:103260009DF80B20039B3832019943F8221000BFD0
:1032700004B0704700B583B001900091019B012B11
:1032800007D1009B4FF6FF72934202D10348FFF72C
:1032900067FD00BF03B05DF804FB00BF2C040020F5
:1032A00008B54FF6FF710120FFF7E4FF08BD00B538
:1032B00085B00390019200930B468DF80B30039B71
:1032C0001B68002B20D0039B1B68F021184600F0E0
:1032D00095FE039B1B686F21184600F08FFE039B31
:1032E0001B689DF80B201146184600F087FE019BD5
:1032F000009A0199039800F00BF8039B1B68F721D3
:10330000184600F07BFE00E000BF05B05DF804FB4E
:1033100000B58BB0039002910192009300230993B2
:1033200000230893019B1B788DF81F30009B002B16
:1033300002D14FF0FF33009300230693069A029BBD
:103340009A4255D2099A009B9A4251D2019A069B01
:1033500013441B781A46089B02FA03F35AB29DF9EC
:103360001F3013435BB28DF81730039B1A689DF82A
:10337000173003F07F03DBB21946104600F03EFE23
:10338000099B01330993019A069B13441B781A4643
:10339000089BC3F1070342FA03F38DF81F30089B23
:1033A00001330893089B062B1ED9099A009B9A4269
:1033B0001AD29DF81F308DF81730039B1A689DF8BC
:1033C000173003F07F03DBB21946104600F016FEFB
:1033D000099B013309939DF81F30DB118DF81F30D5
:1033E000089B073B0893DDE7069B01330693A5E79F
:1033F000089B002B13D0099A009B9A420FD2039B83
:1034000018680122089B02FA03F3DBB2013BDAB22F
:103410009DF81F301340DBB2194600F0EFFD00BFEE
:103420000BB05DF804FB82B00190019B00221A6092
:10343000019B184602B0704782B001900091019B39
:10344000009A1A6000BF02B0704700B583B00190C7
:103450000B468DF803301346ADF80030019B1B6816
:10346000002B22D09DF803300F2B16D8BDF800306A
:10347000B3F5804F11D2019B1A689DF8033063F0B9
:103480001F03DBB21946104600F0B8FD6A4602235E
:1034900002210198FFF73CFF08E06B469DF80310FE
:1034A00002220198FFF703FF00E000BF03B05DF8C0
:1034B00004FB00B583B001900B468DF80330134632
:1034C000ADF80030019B1B68002B14D0019B1A68DB
:1034D0009DF8033003F00F03DBB263F06F03DBB240
:1034E0001946104600F08AFD6A460223022101981F
:1034F000FFF70EFF00E000BF03B05DF804FB00B56E
:1035000087B0039001930B468DF80B3013468DF86E
:103510000A30039B1B68002B34D0039B1B68F021EF
:10352000184600F06BFD039B1B687921184600F0DC
:1035300065FD039B1B689DF80B201146184600F0A3
:103540005DFD039B1B689DF80A201146184600F09C
:1035500055FD00230593059A019B9A420BD2089AC8
:10356000059B1A44002301210398FFF7D1FE059B18
:1035700001330593EFE7039B1B68F721184600F022
:103580003DFD00E000BF07B05DF804FB00B583B06F
:1035900001900B468DF8033013468DF80230019BE5
:1035A0001B68002B16D0019B1B68F921184600F000
:1035B00025FD019B1B689DF803201146184600F06D
:1035C0001DFD019B1B689DF802201146184600F066
:1035D00015FD00E000BF03B05DF804FB00B587B047
:1035E0000390019200930B468DF80B30039B1B68F0
:1035F000002B26D0039B1B68F021184600F0FEFC30
:10360000039B1B689DF80B201146184600F0F6FC42
:1036100000230593059A019B9A420BD2009A059BC1
:103620001A44002301210398FFF772FE059B013322
:103630000593EFE7039B1B68F721184600F0DEFCBB
:1036400000E000BF07B05DF804FB00B583B0019057
:103650000091009806F0CEF80246009B7121019877
:10366000FFF7BCFF00BF03B05DF804FB84B003901C
:1036700002910192039B029A5A60039B019A9A60FD
:10368000039B00221A73039B00225A73039B0022A0
:103690001A61039B00221A75039B00229A61039B07
:1036A0000022DA61039B00221A62039B00225A6205
:1036B000039B00229A62039B0022DA62039B002292
:1036C0001A63039B00225A63039B00229A63039BA5
:1036D0000022DA63039B00221A64039B00225A64CF
:1036E000039B00229A64039B0022DA64039B00225E
:1036F0001A65039B00225A65039B00229A65039B6F
:103700000022DA65039B00221A66039B00225A6698
:10371000039B00229A66039B0022DA66039B002229
:103720001A67039B00225A67039B00229A67029B39
:10373000002B0CBF01230023DAB2039B1A70039BFA
:10374000184604B0704710B584B001900B468DF850
:103750000330019B1B7D002B18D09DF80330F72B05
:1037600006D1019B00221A75019800F039FA23E175
:10377000019B9A699DF803301946019800F0C0F941
:10378000019B9B695A1C019B9A6115E1019B1B6976
:10379000002B00F0B5809DF90330002BC0F2B08003
:1037A000019B1B695A1E019B1A61019B1A699DF8B6
:1037B00003301946019800F0A3F9019B1B69002B07
:1037C00040F0F780019B1B7B002B00F0F280019BF7
:1037D0001B7BD02B75D0D02B04DC902B23D0C02B9F
:1037E0005FD089E0F42B38D0F52B48D0E02B40F0A7
:1037F0008380019BDB6C002B73D0019BDB6C019AF7
:10380000D069019A547B019A5268127892B2D2011F
:1038100091B2019A52680132127892B20A4492B27D
:10382000214698475DE0019B1B6D002B5BD0019BFF
:103830001B6D019A106A019A547B019A52681278A2
:1038400092B2D20191B2019A52680132127892B2C8
:103850000A4492B22146984745E0019BDB6D002B5C
:1038600043D0019BDB6D019AD06A019A5268013204
:103870001178019A5268127892B2984735E0019B0C
:103880001B6E002B33D0019B1B6E019A106B019AAB
:10389000526801321178019A5268127892B29847B0
:1038A00025E0019B5B6D002B23D0019B5B6D019A92
:1038B000506A019A517B019A5268127892B29847E5
:1038C00017E0019B9B6D002B15D0019B9B6D019A0E
:1038D000906A019A517B019A5268127892B2984785
:1038E00009E000BF08E000BF06E000BF04E000BF41
:1038F00002E000BF00E000BF019B00221A7358E005
:103900009DF80330EF2B0DD89DF8033023F00F0303
:103910008DF80F309DF8033003F00F03DAB2019BEE
:103920005A7303E09DF803308DF80F309DF80F3087
:10393000F02B28D0F02B0BDCC02B1CD0C02B02DCD2
:10394000902B10D038E0D02B15D0E02B0BD033E0EB
:10395000F92B23D0F92B03DCF43B012B2CD802E00C
:10396000FF2B17D028E0019B02221A61019B9DF8D2
:103970000F201A7320E0019B01221A61019B9DF820
:103980000F201A7318E0019B01221A75019B002277
:103990009A6111E0019800F0A4F90DE0019B5B6FC2
:1039A000002B08D0019B5B6F019A926B10469847E1
:1039B00001E000BF00E000BF00BF04B010BD84B054
:1039C0000390019200930B468DF80B309DF80B305D
:1039D000D02B22D0D02B04DC902B10D0C02B15D0B4
:1039E00030E0F42B20D0F52B25D0E02B00D029E0BF
:1039F000039B019ADA64039B009ADA6122E0039B3D
:103A0000019A1A65039B009A1A621BE0039B019AB4
:103A10005A65039B009A5A6214E0039B019A9A65C7
:103A2000039B009A9A620DE0039B019ADA65039B5F
:103A3000009ADA6206E0039B019A1A66039B009AD9
:103A40001A6300BF00BF04B0704784B003900192B6
:103A500000930B468DF80B309DF80B30792B00D07E
:103A600006E0039B019A1A67039B009A5A6300BF02
:103A700000BF04B0704784B00390019200930B46DE
:103A80008DF80B309DF80B30F92B02D0FF2B07D0AF
:103A90000DE0039B019A5A67039B009A9A6306E024
:103AA000039B019A9A67039B009A9A6400BF00BF28
:103AB00004B0704784B00390019200930B468DF8D8
:103AC0000B309DF80B30712B00D006E0039B019A60
:103AD0009A66039B009A1A6400BF00BF04B0704747
:103AE00084B00390019200930B468DF80B30039B3A
:103AF000019ADA66039B009A5A6400BF04B07047CB
:103B000000B587B003900B4601928DF80B30039BF4
:103B10009B68019A9A422CBF012300238DF817302D
:103B20009DF81730002B15D0039B5B6E002B11D036
:103B3000039B01221A70039B5B6E039AD26B1046A3
:103B40009847039B9B68019A9A422CBF012300234C
:103B50008DF817309DF8173083F00103DBB2002B8E
:103B600006D0039B5A68019B13449DF80B201A70E2
:103B70009DF81730184607B05DF804FB86B0039037
:103B8000029101920023049300230593049A029B5F
:103B90009A4221D2019A049B1A440199059B0B4435
:103BA00012781A70049B01330493019A049B134406
:103BB0001B78DB01D9B2019A059B13441A7801984E
:103BC000059B03440A43D2B21A70059B0133059347
:103BD000049B01330493D9E7059B184606B0704750
:103BE00010B588B00190019B5B681B78712B3DD0AC
:103BF000792B5DD1019B1B6F002B6CD001230793A8
:103C00000223069303230593019B9B69022B08D88B
:103C1000019B1C6F019B586B002300220021A047D1
:103C200059E0019B9B69D91E019B5B6803331A46CF
:103C30000198FFF7A3FF034603330493049A00217E
:103C40000198FFF75DFF019B1C6F019B586B019B67
:103C50005B6801331B781946019B5B6802331B7854
:103C60001A46019B5B680333A04734E0019B9B6EBF
:103C7000002B32D001230393019B9B69591E019BAA
:103C80005B6801331A460198FFF778FF034601335A
:103C90000293029A00210198FFF732FF019B9B6E6D
:103CA000019A106C019A526801321146984714E04B
:103CB000019BDB6E002B11D0019BDC6E019B586CCD
:103CC000019B5B681978019B9B695A1E019B5B688D
:103CD0000133A04702E000BF00E000BF00BF08B012
:103CE00010BD00B585B00190019B00221A61019BB7
:103CF00000221A73019B00225A7300230393019B35
:103D00009B68039A9A4209D2019B5A68039B134409
:103D100000221A70039B01330393F0E7019B0022FA
:103D20001A75019B00229A61019B9B6F002B05D0A5
:103D3000019B9B6F019A926C1046984700BF05B09B
:103D40005DF804FB82B003468DF807309DF907301B
:103D500003F01F0205499DF907305B09012000FAB5
:103D600002F241F8232000BF02B0704700E100E0FA
:103D700082B003468DF807309DF9073003F01F022B
:103D800006499DF907305B09012000FA02F2603311
:103D900041F8232000BF02B0704700BF00E100E0FF
:103DA00082B001900091019B009A9A6400BF02B01A
:103DB000704782B001900091019BDA6C009BDB435D
:103DC0001A40019BDA6400BF02B0704782B00190D4
:103DD0000091019BDA6C009B1A43019BDA6400BFDF
:103DE00002B0704700B583B01C4B1B6C03F004039A
:103DF000002B14BF01230023DBB2002B2AD017486D
:103E000003F09EF803468DF80730154BD3F80431C4
:103E100013499DF80720CA54114BD3F804310133DC
:103E2000DBB20F4AC2F804310D4BD3F8083101332D
:103E30000B4AC2F808310A4BD3F80831B3F5807F3A
:103E40008CBF01230023DBB2002B03D0044B0122E3
:103E500083F80C2100BF03B05DF804FB00000140B3
:103E60008405002008B51F4B1B6C03F00203002BD8
:103E700014BF01230023DBB2002B30D01A4BD3F840
:103E80000831002B14BF01230023DBB2002B18D014
:103E9000154BD3F80031144AD35CDBB219461148F4
:103EA00003F05DF8104BD3F800310133DBB20E4A5A
:103EB000C2F800310C4BD3F80831013B0A4AC2F872
:103EC0000831094BD3F80831002B0CBF0123002324
:103ED000DBB2002B03D002210248FFF76AFF00BFCC
:103EE00008BD00BF000001409406002030B583B03B
:103EF0000190019B224A1C4615460FCD0FC495E840
:103F0000070084E8070001211E4800F073FE01212C
:103F10001D4800F06FFE01211C4800F06BFE0023DD
:103F200001220221052002F0A3FA01230422032129
:103F3000052002F09DFA019B00221A70019B0022CD
:103F40005A60019B4FF461429A60019B00221A73F0
:103F5000019B05225A73019B0022DA81019B4FF4D9
:103F600080521A82019B00229A74019B0022DA740B
:103F7000019B00221A75019B184603B030BD00BF9B
:103F8000BC990000404105000022040000250A0001
:103F900000B583B001900091009A019B9A60019B4B
:103FA0001946144802F018FF13491248FFF7F8FEAB
:103FB00004211048FFF70AFF0B20FFF7D9FE0C2061
:103FC000FFF7D6FE0B20FFF7BDFE0C20FFF7BAFE71
:103FD000084B5B6F074A43F003035367054B41F6F9
:103FE00019329A670521034802F0D2FE00BF03B0E0
:103FF0005DF804FB00000140F9FF010000B583B04B
:1040000001900B468DF803301B4BD3F80831013378
:10401000B3F5807F8CBF01230023DBB2002B0CD0D3
:10402000154BD3F808310133B3F5807F8CBF0123E2
:104030000023DBB2002B00D0F2E70F4BD3F80431A2
:104040000D499DF80320CA540B4BD3F804310133BA
:10405000DBB2094AC2F80431074BD3F80831013307
:10406000054AC2F8083102210448FFF7AFFE00BF3D
:1040700003B05DF804FB00BF94060020000001407F
:1040800084B00190134BD3F80831002B0CBF0123EF
:104090000023DBB2002B02D04FF0FF3317E00D4BB3
:1040A000D3F800310B4AD35C8DF80F30094BD3F8AD
:1040B00000310133DBB2074AC2F80031054BD3F8B7
:1040C0000831013B034AC2F808319DF80F30184609
:1040D00004B070478405002082B00190094BD3F8EA
:1040E0000831002B0CBF01230023DBB2002B02D0D0
:1040F0004FF0FF3302E0034BD3F80831184602B00B
:10410000704700BF84050020064880470649074ADB
:10411000074B9A42BEBF51F8040B42F8040BF8E774
:10412000FBF7F2FF21420000109D0000000000207C
:104130008C030020FEE700BF00B583B000F020F83C
:1041400001900A4BD3F808311B0AC3F3080300930C
:10415000009B0133019AB2FBF3F30193044A019BE4
:104160001360019B184603B05DF804FB00400E404D
:10417000F0020020014B1846704700BF00F04902D2
:1041800082B0144BD3F8943003F00703032B08D00C
:10419000042B02D0022B08D00BE00F4B1B680193BD
:1041A0000BE04FF40043019307E00C4B1B680193B5
:1041B00003E00B4B1B68019300BF064BD3F80031A3
:1041C0001B0A03F01F030133019AB2FBF3F31846F5
:1041D00002B0704700400E40EC020020E8020020D0
:1041E000F4020020014B1B6818467047E8020020CB
:1041F00000B583B00190084A019B1360074BD3F8C8
:10420000943003F00703022B01D1FFF795FF00BFA5
:1042100003B05DF804FB00BFE802002000400E4040
:104220000C4B5B6D0B4A43F400535365094B1B6CFD
:10423000084A23F003031364074B1B68064A23F064
:1042400001031360054B1B68044A23F0805313607D
:1042500000BF704700300E4074300E4060300E409A
:104260004FF40043184670474FF47A73184670476E
:10427000014B1B6818467047EC02002000B583B064
:104280000190084A019B1360074BD3F8943003F068
:104290000703042B01D1FFF74FFF00BF03B05DF808
:1042A00004FB00BFEC02002000400E4082B00190F1
:1042B0000091019B009A1A6400BF02B0704786B05B
:1042C000039002910192039B03F10473DA00029BB5
:1042D00013449B000593059B019A1A6000BF06B02A
:1042E000704784B001900091019B03F1C063039378
:1042F000039B009A1A6000BF04B0704784B001901D
:104300000091019B03F180630393039B009A1A6061
:1043100000BF04B0704700B585B0039002910192D0
:1043200002990398FFF7EAFF01990398FFF7D9FF75
:1043300000BF05B05DF804FB88B001900B468DF816
:10434000033013468DF802309DF80230002B04D064
:1043500010230593634B069303E000230593624B00
:104360000693019B5B6B069A13400493002307930B
:10437000019B5E4A934240F0B1805D4B03939DF8F0
:104380000330022B3ED0022B04DC002B09D0012B82
:104390001DD098E0062B6CD0812B7BD0032B4AD00C
:1043A00091E0039B1B6803F4FE43079A13430793B2
:1043B000039B1B6803F00F03079A13430793039BA8
:1043C0001B6803F0F003079A134307937EE0039BF7
:1043D0001B681B0E1B0203F4FE43079A134307934B
:1043E000039B1B681B0C03F00F03079A13430793EF
:1043F000039B1B681B0D1B0103F0F003079A13437B
:10440000079363E0039B04331B6803F4FE43079A9E
:1044100013430793039B04331B6803F00F03079AAE
:1044200013430793039B04331B6803F0F003079ABD
:10443000134307934AE0039B04331B681B0E1B02C4
:1044400003F4FE43079A13430793039B04331B684B
:104450001B0C03F00F03079A13430793039B0433CA
:104460001B681B0D1B0103F0F003079A134307930E
:104470002CE0039B08331B6803F00F03079A1343D8
:104480000793039B08331B6803F0F003079A134359
:1044900007931BE0039B04331B6803F4FE43079A56
:1044A00013430793039B04331B6803F00F03079A1E
:1044B00013430793039B04331B6803F0F003079A2D
:1044C0001343079302E00023079300BF079A059B5D
:1044D0009A40049B1A43019B5A6300E000BF08B056
:1044E000704700BFFFFF00800080FFFF00200040FA
:1044F0001082E00F00B589B001900091009BDB783D
:104500008DF81B309DF81B30002B07D100212B4864
:1045100000F000F903468DF81B300EE0019B1B688C
:1045200003F08003002B08D10021244800F0F2F8AA
:1045300000214FF4FA4000F0EDF8019B0A229A6046
:10454000009B1B781A06009B9B781B0403F4FE0358
:104550001A439DF81B301B0203F4FE431343009AD9
:10456000527813430793009B1B79002B03D0079BC2
:1045700043F010030793019B079A1A600198009B70
:104580005B791A46C021FFF7C6FE019B1B6803F04A
:104590008003802B09D10A4B0593059800F092FB0C
:1045A0000490084800F08EFB03904FF400610198DE
:1045B000FFF77CFE00BF09B05DF804FB0024F400A7
:1045C000B80030004041050000B585B00190009171
:1045D000019B02229A60009B9B7800221946019859
:1045E000FFF7AAFE009B5B781A06009B1B791B0253
:1045F0001A43009B5B791B041A43009BDB78DB00AA
:1046000013430393009BDB79002B03D0039B43F000
:1046100000530393009B1B7A002B03D0039B43F0B2
:1046200004030393009B9B79002B03D0039B43F06F
:1046300002030393009B5B7A002B03D0039B43F0A0
:1046400001030393009B1B79F32B0DD1009B9B78F7
:10465000002B09D1009B5B78032B05D8039B23F02B
:10466000706343F080630393009B9B785BB2002BE5
:1046700004DA039B43F0E003039305E0009B9B787F
:104680005B01039A13430393019B039A1A61019BF5
:104690005B6923F4F21323F007030393009B9B78D9
:1046A0005BB2002B06DA009B9B7823F08003039A11
:1046B00013430393009B1B785B04039A13430393F8
:1046C000009BDB7A002B03D0039B43F480430393CE
:1046D000019B039A5A610198009B9B7A1A4602211A
:1046E000FFF7EDFD009B1B79F32B07D1019B3033C6
:1046F000012210211846FFF7E2FD06E0019B30334E
:10470000002210211846FFF7DAFD00BF05B05DF862
:1047100004FB000000B585B001900091019B164A92
:10472000934202D9144B019306E0019BB3F5FA4F73
:1047300002D24FF4FA430193009B002B03D10F48A0
:1047400000F0C0FA0090009A019B13445A1E019B8E
:10475000B2FBF3F30393039B002B02D0039B013BBB
:104760000393039B7F2B01D97F230393039BDBB22E
:10477000184605B05DF804FB0024F4004041050034
:1047800086B0039002910192039B03F10473DA0057
:10479000029B13449B000593059B019A1A6000BF7E
:1047A00006B0704784B001900091019B03F104733F
:1047B000DA00009B13449B000393039B1B6818467D
:1047C00004B0704784B001900091019B03F1C06375
:1047D0000393039B009A1A6000BF04B0704784B033
:1047E00001900091019B03F180630393039B009A66
:1047F0001A6000BF04B0704700B585B00390029105
:10480000019202990398FFF7EAFF01990398FFF7D5
:10481000D9FF00BF05B05DF804FB82B00190012212
:10482000019B02FA03F3184602B0704700B585B049
:10483000019001230393019B124A934204D8002361
:1048400003930023029308E0019B0F4A934202D88E
:104850000123029301E002230293039A10210B48E3
:10486000FFF78EFF094BD3F8003123F08072029BD3
:104870001B0606491343C1F8003100BF05B05DF8BF
:1048800004FB00BF0048E8010090D00300400E4048
:1048900082B0034B1B680193019B184602B070471E
:1048A000F802002000B583B0FFF76AFC0190074BC7
:1048B000D3F800311B0A03F01F030133019A02FBF6
:1048C00003F3184603B05DF804FB00BF00400E4040
:1048D00000B583B00D4800F0BDFA03468DF80330F3
:1048E0009DF80330072B05D0092B07D1FFF748FCB3
:1048F000019006E0FFF7CCFF019002E00023019356
:1049000000BF019B184603B05DF804FB06000E00D3
:1049100000B585B00190019B002B1FD11C4800F011
:1049200099FA03468DF80B3000BF9DF80B30013B20
:10493000072B24D801A252F823F000BF61490000E0
:104940007F4900007F4900006F4900007F49000057
:104950007F4900006749000077490000002312E00A
:10496000002303930EE0FFF793FF03900AE0FFF7A5
:1049700039FC039006E0FFF795FF039002E0002367
:10498000039300BF039B184605B05DF804FB00BF0E
:10499000B800300084B001900091104B5B6803F0C8
:1049A00040730393019B0E4A934202D80023039362
:1049B00005E0019B0B4A934201D801230393039B1B
:1049C0001B060393054B5B6823F040720349039B6E
:1049D00013434B6000BF04B0704700BF00000E409F
:1049E00040787D01005A620200B583B00E4B1B6C0B
:1049F000002B14BF012300238DF807300A4B41F62A
:104A000071321A64FFF7B6FB034600211846FFF720
:104A1000C1FF9DF80730002B02D0034B00221A641F
:104A200000BF03B05DF804FB00000E4000B585B088
:104A3000019000910D4B1B6C002B14BF0123002330
:104A40008DF80F30094B41F671321A6400990198C4
:104A5000FFF7A0FF9DF80F30002B02D0034B002280
:104A60001A6400BF05B05DF804FB00BF00000E40F3
:104A700086B001900F230593019B03330493059B9C
:104A80000393039A049B934228BF13460293029B0D
:104A90001B070293029B184606B07047034B5B6AE4
:104AA0001B0903F003031846704700BF00400E4087
:104AB00082B00190054B5B6A23F03002019B1B0121
:104AC000024913434B6200BF02B0704700400E40E2
:104AD00010B584B0019000230293019B334A9342A6
:104AE00006D0334A934203D0324A934200D000E0CA
:104AF00000BF019800F0AEF903460393019B2B4AD7
:104B000093420DD02A4A934211D02A4A934200D0B0
:104B100014E0294BD3F8803003F0070303930DE032
:104B2000254BD3F8843003F00703039306E0224BB0
:104B3000D3F8883003F00703039300BF039B042BD3
:104B40002DD801A252F823F0994B00005D4B0000D4
:104B5000654B0000754B00006D4B0000FFF780FBBC
:104B600002901FE0FFF784FB02901BE0FFF77CFB45
:104B7000029017E0FFF7E0FA04460F4BD3F800313C
:104B80001B0E03F0010301331846FFF746FE0346F0
:104B9000B4FBF3F3029305E00023029302E0002349
:104BA000029300BF029B184604B010BD03001E0014
:104BB0000500220002001C0000400E4082B001905F
:104BC000094BD3F8443103F00103002B08D100BF97
:104BD000054BD3F84021019B1340002BF8D100E096
:104BE00000BF02B0704700BF00400E4000BF7047DA
:104BF00000BF704700B587B001900B468DF80330B9
:104C000000230493019B1B0A03F00F03013B092BB4
:104C100045D801A252F823F0414C00004D4C000051
:104C20009F4C00009F4C0000474C0000534C00007C
:104C30005D4C00009F4C0000674C0000734C00006E
:104C4000194B059318E0194B059315E0184B059384
:104C500012E0184B0593012304930DE0164B0593C6
:104C60001023049308E0154B05934FF4803304930D
:104C700002E0134B059300BF019B1B0B03F01F03C6
:104C80000393049B002B02D00498FFF797FF9DF835
:104C900003301A4603990598FFF772FD00E000BF44
:104CA00007B05DF804FB00BF00400E40B0400E406E
:104CB000C0400E40E0400E40E8400E40F0400E4044
:104CC00050410E4000B585B00190019B03F478136C
:104CD000B3F5801F00F0A580B3F5801F16D8B3F59B
:104CE000802F31D0B3F5802F05D8002B28D0B3F515
:104CF000003F3CD09EE0B3F5402F47D0B3F5602F86
:104D000000F08B80B3F5202F2DD093E0B3F5E01F9A
:104D10004BD0B3F5E01F09D8B3F5B01F4FD0B3F5B2
:104D2000C01F63D0B3F5A01F44D083E0B3F5081FC4
:104D30006ED0B3F5401F78D0B3F5F01F51D079E0B5
:104D4000FFF71EFA039078E0FFF71AFA03903D4B45
:104D5000D3F80C311B0AC3F308030133039AB2FBE7
:104D6000F3F3039369E0FFF70BFA039065E0FFF7B5
:104D700007FA0390334BD3F808311B0AC3F3080337
:104D80000133039AB2FBF3F3039356E0FFF7F8F90C
:104D900003902C4BD3F814311B0A03F01F0301338B
:104DA000039AB2FBF3F3039347E02748FFF790FE23
:104DB000039042E02548FFF78BFE03903DE0224838
:104DC000FFF786FE03901F4BD3F8203103F00F034B
:104DD0001846FFF722FD0246039BB3FBF2F3039351
:104DE0002BE01B48FFF774FE039026E01848FFF7FE
:104DF0006FFE0390134BD3F8283103F003031846DA
:104E0000FFF70BFD0246039BB3FBF2F3039314E0A1
:104E10000E48FFF75DFE03900FE0FFF759FD03908A
:104E20000BE0FFF735FD039007E00020FFF770FD72
:104E3000039002E00023039300BF039B184605B0D4
:104E40005DF804FB00400E4002001C00050022003B
:104E500003001E0084B0019001238DF80F30019BE8
:104E600003F00F030293029B013B072B00F2CC805F
:104E700001A252F823F000BF994E0000D34E00006B
:104E80000B4F0000095000005B4F0000934F0000E3
:104E900009500000BD4F0000604BD3F8943003F080
:104EA0000703032B08D0042B02D0022B08D00BE001
:104EB00002238DF80F300BE003238DF80F3007E04D
:104EC00004238DF80F3003E005238DF80F3000BF69
:104ED0009EE0524BD3F8803003F00703022B07D03B
:104EE000042B09D0012B0BD103238DF80F300BE0DD
:104EF00002238DF80F3007E00A238DF80F3003E00E
:104F000001238DF80F3000BF82E0444BD3F884308A
:104F100003F00703013B032B1AD801A252F823F038
:104F2000314F0000394F0000494F0000414F000051
:104F300003238DF80F300FE002238DF80F300BE0C4
:104F40000A238DF80F3007E006238DF80F3003E0B9
:104F500001238DF80F3000BF5AE0304BD3F8883072
:104F600003F00703022B07D0042B09D0012B0BD130
:104F700003238DF80F300BE002238DF80F3007E08C
:104F80000A238DF80F3003E001238DF80F3000BFA6
:104F90003EE0224B1B6F03F00103002B05D0012BD9
:104FA00007D109238DF80F3007E007238DF80F3064
:104FB00003E001238DF80F3000BF29E0174BD3F831
:104FC0005C3103F03003102B0DD0102B02D8002BD6
:104FD00005D014E0202B0AD0302B0CD00FE0012399
:104FE0008DF80F300FE007238DF80F300BE004230E
:104FF0008DF80F3007E008238DF80F3003E0012310
:105000008DF80F3000BF03E000238DF80F3000BF94
:105010009DF80F30184604B0704700BF00400E40A6
:1050200000B589B001900B468DF803300323079338
:1050300003238DF81B3000230493019B03F00F031F
:105040000393039B013B072B00F2128101A252F84C
:1050500023F000BF755000002751000043510000AD
:105060007152000035510000DD5100007152000006
:10507000FD5100009DF80330023B082B00F2FA803E
:1050800001A252F823F000BFAD500000B95000005B
:10509000C5500000D7500000755200007552000046
:1050A00075520000755200007552000004230793EA
:1050B00000238DF81B3017E00323079301238DF89D
:1050C0001B3011E00223079302238DF81B306D483B
:1050D000FFF7ACFB08E00123079303238DF81B3097
:1050E0006848FFF7A3FB00BF9DF81B300122012198
:1050F000184600F0C7F9FFF777FCFFF777FD624A23
:10510000079B53676148FFF7DDFD03461846FFF72D
:105110008DFBFFF711F8029000210298FFF786FC43
:10512000FFF766FDABE0049B002B01D0049B00E081
:10513000574B0493049B002B01D0049B00E0554B7C
:105140000493049B002B01D0049B00E0524B04937A
:105150009DF80330013B092B00F28E8001A252F82A
:1051600023F000BF8D51000093510000A3510000B7
:105170007952000079520000B351000079520000CA
:105180007952000079520000CF51000000230593AE
:1051900020E001220121002000F074F90223059390
:1051A00018E001220121012000F06CF90123059390
:1051B00010E0FEF7C1FF03461846FFF737FB012258
:1051C00000213648FFF7DCFA0323059302E00423AD
:1051D000059300BF049B059A1A6050E09DF80330C8
:1051E000072B02D0092B04D049E0274B00221A6775
:1051F00003E0254B01221A6700BF40E09DF8033011
:10520000013B072B3AD801A252F823F02D5200009F
:105210007D5200007D520000435200007D5200008C
:105220007D520000335200005352000000230593CA
:1052300012E001220121042000F024F9012305934A
:105240000AE001220121022000F01CF9022305934B
:1052500002E00323059300BF0B4BD3F85C3123F02E
:105260003002059B1B0108491343C1F85C3106E07D
:1052700000BF04E000BF02E000BF00E000BF09B0D3
:105280005DF804FB0148E80100400E4000050A00FB
:1052900080400E4088400E4084400E40B0400E409A
:1052A00000B585B001900B468DF8033013468DF89C
:1052B000023000230193214B5A6A019B43F0405373
:1052C000DB43134003939DF80330002B02D04FF0D3
:1052D000805200E00022019B13439DF80220002A27
:1052E00002D04FF0005200E000221343039A134310
:1052F0000393FEF777FF0290019B002B03D19DF8EB
:105300000230002B06D000210298FFF78FFB029895
:10531000FFF78CFA9DF80330002B03D19DF8023083
:10532000002B04D001220121022000F0ABF8034A37
:10533000039B536200BF05B05DF804FB00400E40C4
:1053400010B584B001901120FFF784FD01220021E7
:10535000022000F097F8019B5B7883F00103DBB239
:10536000002B0DD0019B9B7883F00103DBB2002B57
:1053700006D0019BDB7883F00103DBB2002B00BF7A
:1053800000230393019B1B7C022B01D10123039378
:10539000264B5B6A23F001022449039B13434B62B3
:1053A000019B1B781A4608212148FFF7E9F91F4B9A
:1053B0009B6A23F00703019AD27A11461B4A0B43DA
:1053C0009362019B9B88DB02019A527A1146174A2D
:1053D0000B43D362154B1B6B03F07F62019BDB8891
:1053E000DB021343019A927A1A43019B1B7ADB0179
:1053F00042EA0304019B1B7A1846FFF739FB034678
:105400000A4A23431363019B5B7B1A03019B9B7B2B
:105410001B011343019AD27B1A43019B1B7B1B0484
:10542000024913434B6300BF04B010BD00400E405F
:1054300024400E4000B583B001901120FFF70AFD13
:1054400000220021002000F01DF8019B1B781A4665
:10545000019B5B78DB021A43019B9B781B061A4376
:10546000019BDB781B0213431A4604490448FFF7EB
:10547000C3F900BF03B05DF804FB00BF7F1B00074A
:1054800038400E4000B589B003468DF807300B4612
:105490008DF8063013468DF805309DF80730042B43
:1054A00000F2AD8001A252F823F000BF09550000C0
:1054B000F7540000D3540000C1540000E55400002C
:1054C00001230593022304930123079300230693EA
:1054D00025E0042305930823049303230793022361
:1054E00006931CE0102305932023049305230793C0
:1054F0000423069313E0402305938023049307239A
:105500000793062306930AE04FF4807305934FF444
:1055100000730493092307930823069300BF9DF8A3
:105520000630002B5FD000238DF80F309DF8073038
:10553000022B10D1FFF7B2FA0346002B0BD1012347
:105540008DF80F30304B5B6A03F00103012B02D161
:105550000120FFF7ADFA2C4A059B136600BF0699A0
:105560002A48FFF71FF90346002BF8D09DF80530B5
:10557000002B45D000BF07992448FFF713F90346D5
:10558000002BF8D09DF80730022B39D19DF80F3051
:10559000002B35D01C4B5B6A03F00103012B05D1B6
:1055A00001222021022000F035F903E00021022031
:1055B00000F0E4F8022000F02BF802900122002114
:1055C0000220FFF75FFF0299022000F057F80E4A11
:1055D000059B136600BF07990C48FFF7E3F80346E5
:1055E000002BF8D00CE0084A049B136600BF069914
:1055F0000648FFF7D7F80346002BF8D100E000BFBC
:1056000009B05DF804FB00BF00400E4090400E4022
:1056100084B003468DF807309DF80730013B032B1B
:1056200023D801A252F823F0395600005D5600003D
:1056300045560000515600000F4B1B6AC3F3080388
:10564000039315E00C4B1B6903F07F0303930FE0FA
:10565000094B9B6903F07F03039309E0064BD3F8E2
:105660009C30C3F30A03039302E00023039300BFBB
:10567000039B184604B0704700400E4000B585B04B
:10568000034600918DF807309DF80730013B032B4E
:1056900069D801A252F823F0A95600002B57000048
:1056A000D756000001570000009BC3F30803009386
:1056B00000BF1A212E48FFF775F80346002BF8D1DA
:1056C0002C4B1B6A23F4FF7323F001032949009A32
:1056D00013430B6248E0009B03F07F03009300BF7D
:1056E00018212348FFF75EF80346002BF8D1214B21
:1056F0001B6923F07F021F49009B13430B6133E0BA
:10570000009B03F07F03009300BF19211848FFF7A7
:1057100049F80346002BF8D1164B9B6923F07F0212
:105720001449009B13438B611EE0124BD3F8903059
:10573000104B5B6A23F030030E4A43F010035362B0
:10574000009BDB0903F00F031846FFF791F9039064
:10575000084B1A6B084B1340009A1A430549039BE8
:1057600013430B6300E000BF00BF05B05DF804FB0E
:1057700040410E4000400E4000F8FF0F00B585B0DC
:1057800003460A468DF8073013468DF80630FFF7BA
:1057900085F90346002B03D14FF44003039317E030
:1057A0009DF80630202B04D0302B0AD0002B04D0DB
:1057B0000BE04FF4000303930AE04FF4400303931C
:1057C00006E04FF44003039302E0104B039300BF45
:1057D00000BF0F4BD3F89020039B1340039A9A42CB
:1057E000F7D1039B03F48003002B0AD0084BD3F8B6
:1057F000A03003F48063002B14BF01230023DBB22D
:1058000000E00123184605B05DF804FBFF03E10743
:1058100000400E4000B583B003468DF807300B46BC
:105820008DF8063013468DF805309DF80730022BB1
:1058300000D01BE09DF80630002B08D00E4B4FF433
:105840008062C3F8A8200C4A9DF8063053669DF884
:105850000530002B09D09DF806209DF80730114631
:105860001846FFF78BFF034601E000BF01231846EF
:1058700003B05DF804FB00BF00400E4086B003900B
:1058800002910192039B03F10473DA00029B13441B
:105890009B000593059B019A1A6000BF06B07047F4
:1058A00084B001900091019B03F10473DA00009B26
:1058B00013449B000393039B1B68184604B0704776
:1058C000024B1B6DDBB21846704700BFB081E00F82
:1058D00088B0274B0793274B0693274B0593274BFD
:1058E0000493274B0393274B0293274BD3F86C3138
:1058F000B3F1FF3F37D0079B5B680193079B1B68A1
:105900000093009B019A1A60069B5B680193069BBB
:105910001B680093009B019A1A60059B5B680193CA
:10592000059B1B680093009B019A1A60049B5B68AF
:105930000193049B1B680093009B019A1A60039BD0
:105940005B680193039B1B680093009B019A1A609C
:10595000029B5B680193029B1B680093009B019A6A
:105960001A60012300E00023184608B0704700BF0A
:105970003880E00F4080E00F4880E00F5080E00F5B
:105980005880E00F6080E00FB081E00F00B585B077
:10599000254BDB6E244A43F08073D36600212348F5
:1059A000FFF77EFF0390039B002B03D0042000F041
:1059B0005DFC02E0002000F059FC1B4B1B6E1A4AF4
:1059C00023F0C0431366184BDB6C174A43F0060301
:1059D000D36401AB184601F053F89DF80530012B54
:1059E0001ED19DF80430022B1AD8114B1B78002BC6
:1059F00016D1104B1B680F4A43F0010313600A4B8A
:105A00001B6E0293029A0C4B13400293029A0B4BAB
:105A100013430293044A029B1366054B01221A703A
:105A200000BF05B05DF804FB00300E404C300E4066
:105A3000A407002044300E40000F0EF0B4C0400B0D
:105A40008AB001230993099B1B050893324BDB6C39
:105A50001B0A03F00F030793304B1B881A462F4B8A
:105A60001B8828335B08134403F12801079B5A1C49
:105A700013469B001344B1FBF3F3013B0693069BD3
:105A8000059307230493049A059B934228BF13466A
:105A90000693069B1B0606931F4BDB6C23F0EE62FE
:105AA0000699089B0B431C491343CB641C4BB3F969
:105AB0000030002B2CDB1A4BB3F90030ADF80E3060
:105AC000BDF80E20BDF80E3028335B08134403F1F7
:105AD0002802079B01335900079B01335B080B44E5
